:020000040000FA
:100000000128E22BFF3FFF3FFF3FFF3FFF3FFF3F46
:10001000FF3FFF3FFF3FFF3FFF3FFF3FFF3FFF3FF0
:10002000FF3FFF3FFF3FFF3FFF3FFF3FFF3FFF3FE0
:10003000FF3FFF3FFF3FFF3FFF3FFF3FFF3FFF3FD0
:10004000FF3FFF3FFF3FFF3FFF3FFF3FFF3FFF3FC0
:1004E000FF3FFF3FFF3FFF3FFF3FFF3FFF3F220038
:1004F0009D010800FE0012001E00FE0B7B2A003446
:1005000023001513151400000000080055302300C7
:100510009600AA3096009514000000000800F00034
:10052000962A22008C120C1620308C000130F0022A
:10053000700A031D9C2A9D2A912A080023008C0121
:10054000203022008C00083021008C0027008C1500
:1005500021009513083024008C000800F300F201FC
:10056000731CB32AB42AB82A7008F1007108F20784
:100570000310F00D0310F30C7308031DC02AC12AE9
:10058000B02A72080800033023009200F030910076
:100590001513151615158231862282312300151583
:1005A0001513951203309200F030910071089400F9
:1005B00070089300823186228231230015110800D1
:1005C00001342934003402342F34003403343734F6
:1005D00000340434433400340534563400340634D3
:1005E000763400340734F834003408348834013465
:1005F0000934293402340A34DC3402340330230051
:100600009200F03091008231802282312300140860
:10061000F3001308F200102B0A30F2020030F33B13
:10062000003073020B30031972020318182B192BB8
:100630000C2B7308F1007208F0000800F40003307E
:1006400022009D0021303B00B0000330F000740810
:100650008231AE228331213E86008701403F3B003C
:100660009500413F96000330F00074088231AE22BD
:100670008331213E86008701403F3B00A500413F7A
:10068000A60091019201A101A20100309400023064
:1006900093000030A4000130A30000309800013026
:1006A000970003308F000230AE0002309E00A001A0
:1006B000D0309B00C030AB0008008231FE22833175
:1006C0007008FD0082319E22833121009618692B2B
:1006D0006A2BD52B0330FC00FD0108302700920067
:1006E0008B157D0883311E23833121001708C13902
:1006F0001838970063002700931D7F2B802B9D2BBC
:100700008B1121001708C1390C38970063002700AE
:1007100093118B1520008C198E2B8F2BC32B01303E
:10072000F9007908FD070A307D06031D982B992BE7
:100730009A2BFD010330FC00C32B0130FC028B110E
:1007400082317722833121001708C139123897008E
:100750006300FB01B42B013082318F2283316300AF
:100760000130F9007908FB070330F0007D08823181
:10077000AE228331203E8600870101087B02031CE4
:10078000C22BC32BAB2B7C08031DC72BC82B702B94
:100790008B11270092017D08F900FA017908F00019
:1007A0007A08F1008231C3228331210096141708A0
:1007B000C139243897007D0883311E2383316300BB
:1007C00001000128E030840082308500203086005E
:1007D000003087001E3082317A22833120005D2B69
:1007E0000000FF3FFF3FFF3FFF3FFF3FFF3FFF3F57
:1007F000FF3FFF3FFF3FFF3FFF3FFF3FFF3FFF3F09
:020000040001F9
:04000E00BC39FD1EDE
:08000000FF3FFF3FFF3FFF3F00
:00000001FF
